{
  "_format": "hh-sol-artifact-1",
  "contractName": "MyContract",
  "sourceName": "contracts/evm.sol",
  "abi": [
    {
      "inputs": [
        {
          "internalType": "address",
          "name": "walletAddress",
          "type": "address"
        },
        {
          "internalType": "address[]",
          "name": "tokenAddress",
          "type": "address[]"
        }
      ],
      "name": "getBalances",
      "outputs": [
        {
          "components": [
            {
              "internalType": "address",
              "name": "token",
              "type": "address"
            },
            {
              "internalType": "uint256",
              "name": "balance",
              "type": "uint256"
            }
          ],
          "internalType": "struct MyContract.TokenBalance[]",
          "name": "",
          "type": "tuple[]"
        }
      ],
      "stateMutability": "view",
      "type": "function"
    }
  ],
  "bytecode": "0x608060405234801561001057600080fd5b5061064c806100206000396000f3fe608060405234801561001057600080fd5b506004361061002b5760003560e01c80636a385ae914610030575b600080fd5b61004a60048036038101906100459190610309565b610060565b604051610057919061046f565b60405180910390f35b606060008383905067ffffffffffffffff81111561008157610080610491565b5b6040519080825280602002602001820160405280156100ba57816020015b6100a761020c565b81526020019060019003908161009f5790505b50905060005b848490508110156102005760008585838181106100e0576100df6104c0565b5b90506020020160208101906100f591906104ef565b9050600086868481811061010c5761010b6104c0565b5b905060200201602081019061012191906104ef565b905060008273ffffffffffffffffffffffffffffffffffffffff166370a082318a6040518263ffffffff1660e01b815260040161015e919061052b565b602060405180830381865afa15801561017b573d6000803e3d6000fd5b505050506040513d601f19601f8201168201806040525081019061019f9190610572565b905060405180604001604052808373ffffffffffffffffffffffffffffffffffffffff168152602001828152508585815181106101df576101de6104c0565b5b602002602001018190525050505080806101f8906105ce565b9150506100c0565b50809150509392505050565b6040518060400160405280600073ffffffffffffffffffffffffffffffffffffffff168152602001600081525090565b600080fd5b600080fd5b600073ffffffffffffffffffffffffffffffffffffffff82169050919050565b600061027182610246565b9050919050565b61028181610266565b811461028c57600080fd5b50565b60008135905061029e81610278565b92915050565b600080fd5b600080fd5b600080fd5b60008083601f8401126102c9576102c86102a4565b5b8235905067ffffffffffffffff8111156102e6576102e56102a9565b5b602083019150836020820283011115610302576103016102ae565b5b9250929050565b6000806000604084860312156103225761032161023c565b5b60006103308682870161028f565b935050602084013567ffffffffffffffff81111561035157610350610241565b5b61035d868287016102b3565b92509250509250925092565b600081519050919050565b600082825260208201905092915050565b6000819050602082019050919050565b61039e81610266565b82525050565b6000819050919050565b6103b7816103a4565b82525050565b6040820160008201516103d36000850182610395565b5060208201516103e660208501826103ae565b50505050565b60006103f883836103bd565b60408301905092915050565b6000602082019050919050565b600061041c82610369565b6104268185610374565b935061043183610385565b8060005b8381101561046257815161044988826103ec565b975061045483610404565b925050600181019050610435565b5085935050505092915050565b600060208201905081810360008301526104898184610411565b905092915050565b7f4e487b7100000000000000000000000000000000000000000000000000000000600052604160045260246000fd5b7f4e487b7100000000000000000000000000000000000000000000000000000000600052603260045260246000fd5b6000602082840312156105055761050461023c565b5b60006105138482850161028f565b91505092915050565b61052581610266565b82525050565b6000602082019050610540600083018461051c565b92915050565b61054f816103a4565b811461055a57600080fd5b50565b60008151905061056c81610546565b92915050565b6000602082840312156105885761058761023c565b5b60006105968482850161055d565b91505092915050565b7f4e487b7100000000000000000000000000000000000000000000000000000000600052601160045260246000fd5b60006105d9826103a4565b91507fffffffffffffffffffffffffffffffffffffffffffffffffffffffffffffffff820361060b5761060a61059f565b5b60018201905091905056fea2646970667358221220e9a671db306f14ea930004bccc8ea2150fae00b32d44572c331a1d9ce16faea564736f6c63430008120033",
  "linkReferences": {},
  "deployedLinkReferences": {}
}